:400000000080002011000000516300005163000010B506F0D9F9C04610B5254B12221A6007F0F4F8234B180007F01EF9012007F0FBF8182006F02EFF1F4B204A1A60204B9B
:400040008022D2051A601F4B1E4A126802210A431A601D4B1D4A1A601D4B00221A601D4B1C4A126808218A431A60FA23DB00180007F002F8184B180007F070F8174BC02233
:4000800012011A60164B174A1A60174B802212061A60164B00221A60154B40221A60084B8022D2051A60024B11221A60C04610BD30001040001BB70004010B40060000806D
:4000C0000C020B4078002E407C002E406A2D000064F02E406CF02E40DC050000000301400000014040FF008008010B4000010B400401014000B583B072B63B4B00221A6077
:400100006B46073300221A7025E06B4607331A7813005B009B185B00344A9B180093009B1A78597809020A43997809040A43DB781B0613431800009B1A795B791B0213434E
:400140009BB2190006F0E4F86B4607331A786B46073301321A706B4607331B78012BD4D9234BEE2212061A60224B992212041A60214B992212041A60204B992212041A6096
:400180001F4B992212041A601E4B992212041A601D4A1D4B1B78DBB206210B43DBB213701A4BD82212041A60194B20221A60194BC42292021A60184B20221A60174B402218
:4001C0001A60174BC02252031A60164BC0221A60154BD82212041A60FFF71EFF06F0A6F8C04603B000BDC0466CF02E40E4AB0100000002400001024000500F4010500F407B
:4002000020500F4030500F4000700F40080004400001044008010440180104400002044008020440000304400803044010B5064C2378002B07D1054B002B02D0044800E0DE
:4002400000BF0123237010BDA01200200000000014A00100084B10B5002B03D00749084800E000BF07480368002B00D110BD064B002BFBD09847F9E700000000A412002000
:4002800014A00100380D00200000000082B001900091019A009BDA411300180002B0704782B001900091009B2022D31A019ADA411300180002B0704782B00190019B1B7891
:4002C0001A06019B01331B781B041A43019B02331B781B021343019A033212781343180002B0704782B001900091009B5A1C0092019A120ED2B21A70009B5A1C0092019AF9
:40030000120CD2B21A70009B5A1C0092019A120AD2B21A70019BDAB2009B1A70C04602B07047C04684B001900091019B1A0E0F236B441A70019B1A0C0E236B441A70019B1A
:400340001A0A0D236B441A7003AB019A1A700F236B441B78009AD2180F236B4412781A700E236B441B78009AD2180E236B4412781A700D236B441B78009AD2180D236B4470
:4003800012781A7003AB1B78009AD21803AB12781A700F236B441B781A060E236B441B781B041A430D236B441B781B021A4303AB1B781343180004B07047C04610B58CB012
:4003C00003900291019204230793019B9B080693039B1B680133079A53430593039B0433049300230B930FE00B9B9B00049AD4180B9B9B00029AD3181800FFF75DFF03006B
:4004000023600B9B01330B930B9A069B9A42EBD301230A93002309934AE00B9B284A944663449B00049AD3181B680893099A069B9A4204D10A9B01330A9300230993099B8E
:40044000002B13D1089B08211800FFF729FF02001C4B19001000FFF765FF01001A4A0A9BD3181B781B064B4008930DE0069B062B0AD9099B042B07D1124A089B110018003B
:40048000FFF750FF030008930B9B9B00049AD3180B99069A8A1A920004998A181168089A4A401A600B9B01330B93099B013309930B9A059B9A42B0D3C0460CB010BDC04692
:4004C000FFFFFF3F18A0010018A1010000B585B0039002910192039BF4220021180007F0BBFA019B182B0DD0202B15D0102B1DD1039B0A221A60019A0299039B1800FFF7D6
:400500005DFF15E0039B0C221A60019A0299039B1800FFF753FF0BE0039B0E221A60019A0299039B1800FFF749FF01E007F034FAC04605B000BDC04682B001900091019B1F
:400540001A68009B1B685A40019B1A60019B0433019A04321168009A043212684A401A60019B0833019A08321168009A083212684A401A60019B0C33019A0C321168009A82
:400580000C3212684A401A60C04602B07047C04610B582B00190019B1B68184A11001800FFF7C0FE0200019B1A60019B1C1D019B04331B68114A11001800FFF7B3FE0300B3
:4005C0002360019B08331C00019B08331B680B4A11001800FFF7A6FE03002360019B0C331C00019B0C331B68044A11001800FFF799FE03002360C04602B010BD18A0010070
:4006000086B00190019B1B681B0E1A06019B04331968FF231B040B401A43019B08331968FF231B020B401A43019B0C331B68FF210B4013430593019B04331B681B0E1A06B9
:40064000019B08331968FF231B040B401A43019B0C331968FF231B020B401A43019B1B68FF210B4013430493019B08331B681B0E1A06019B0C331968FF231B040B401A4397
:40068000019B1968FF231B020B401A43019B04331B68FF210B4013430393019B0C331B681B0E1A06019B1968FF231B040B401A43019B04331968FF231B020B401A43019B05
:4006C00008331B68FF210B4013430293019B059A1A60019B0433049A1A60019B0833039A1A60019B0C33029A1A60C04606B0704782B00190019B5B00074A13401900019BE1
:40070000DB09064A1A4013005B009B18DA009B184B40180002B07047FEFEFEFE0101010110B584B00190019B1800FFF7E1FF03000393019A039B534018211800FFF7A6FD12
:400740000200039B5A401400019B10211800FFF79DFD03005C40019B08211800FFF796FD03006340180004B010BDC04610B582B00190019B1B681800FFF7D2FF0200019B48
:400780001A60019B1C1D019B04331B681800FFF7C7FF03002360019B08331C00019B08331B681800FFF7BCFF03002360019B0C331C00019B0C331B681800FFF7B1FF030088
:4007C0002360C04602B010BD00B58BB0039002910192039B1B680A2B09D0039B1B680C2B05D0039B1B680E2B01D007F0D5F8029B1800FFF761FD020004AB1A60029B0433F5
:400800001800FFF759FD020004AB5A60029B08331800FFF751FD020004AB9A60029B0C331800FFF749FD020004ABDA60039B04330993099A04AB11001800FFF77DFE099BEE
:40084000103309930123089317E004AB1800FFF79FFE04AB1800FFF7D3FE04AB1800FFF785FF099A04AB11001800FFF765FE099B10330993089B01330893039B1A68089B2E
:400880009A42E2D804AB1800FFF782FE04AB1800FFF7B6FE099A04AB11001800FFF74CFE04AB1B68019A11001800FFF71BFD04AB5A68019B043319001000FFF713FD04AB13
:4008C0009A68019B083319001000FFF70BFD04ABDA68019B0C3319001000FFF703FDC0460BB000BD10B582B00190019B1B68184A11001800FFF716FD0200019B1A60019BA0
:400900001C1D019B04331B68114A11001800FFF709FD03002360019B08331C00019B08331B680B4A11001800FFF7FCFC03002360019B0C331C00019B0C331B68044A11002F
:400940001800FFF7EFFC03002360C04602B010BD24A1010086B00190019B1B681B0E1A06019B0C331968FF231B040B401A43019B08331968FF231B020B401A43019B043327
:400980001B68FF210B4013430593019B04331B681B0E1A06019B1968FF231B040B401A43019B0C331968FF231B020B401A43019B08331B68FF210B4013430493019B0833EA
:4009C0001B681B0E1A06019B04331968FF231B040B401A43019B1968FF231B020B401A43019B0C331B68FF210B4013430393019B0C331B681B0E1A06019B08331968FF2314
:400A00001B040B401A43019B04331968FF231B020B401A43019B1B68FF210B4013430293019B059A1A60019B0433049A1A60019B0833039A1A60019B0C33029A1A60C046BA
:400A400006B0704710B588B00190019B1800FFF74FFE03000793079B1800FFF749FE03000693069B1800FFF743FE0200019B53400593079A059B53400493069A059B53405D
:400A80000393019A079B5A40039B5A401400049B18211800FFF7FAFB03005C40039B10211800FFF7F3FB03005C40059B08211800FFF7ECFB03006340180008B010BDC04692
:400AC00010B582B00190019B1B681800FFF7BAFF0200019B1A60019B1C1D019B04331B681800FFF7AFFF03002360019B08331C00019B08331B681800FFF7A4FF030023607F
:400B0000019B0C331C00019B0C331B681800FFF799FF03002360C04602B010BD00B58BB0039002910192039B1B680A2B09D0039B1B680C2B05D0039B1B680E2B01D006F089
:400B40002BFF029B1800FFF7B7FB020004AB1A60029B04331800FFF7AFFB020004AB5A60029B08331800FFF7A7FB020004AB9A60029B0C331800FFF79FFB020004ABDA602A
:400B8000039B1B689B009B00039AD31804330993099A04AB11001800FFF7CEFC099B103B0993039B1B68013B089317E004AB1800FFF7D0FE04AB1800FFF794FE099A04ABA2
:400BC00011001800FFF7B8FC04AB1800FFF778FF099B103B0993089B013B0893089B002BE4D104AB1800FFF7B5FE04AB1800FFF779FE099A04AB11001800FFF79DFC04AB09
:400C00001B68019A11001800FFF76CFB04AB5A68019B043319001000FFF764FB04AB9A68019B083319001000FFF75CFB04ABDA68019B0C3319001000FFF754FBC0460BB055
:400C400000BDC04600B585B001900091009B1B0EDAB203AB1A70009B1B0CDAB203AB5A70009B1B0ADAB203AB9A70009BDAB203ABDA70019A03AB1000190004231A0006F08B
:400C8000E2FEC04605B000BD00B58BB0039002910192039B18220021180006F0DDFE039B00221A60039B181D029B13330D22190006F0C9FE039B1A1D039B1B68190010003D
:400CC000FFF7C0FFF42006F09BFE0300099305AA029B1000190010231A0006F0B4FE05A9099B10221800FFF7F1FB039B099A5A61C0460BB000BDC04630B58FB00B900A913B
:400D00000992089300230D930B9B59690B9B0433099D0A9C0F48139A0792129A0692089A05920D22049203930023029300230193022300932B00220000F074FB03000D933E
:400D40000B9B1B685A1C0B9B1A600D9B18000FB030BDC04624A20100F0B597B002AFF862B9627A623B626B467B607B6A103BFB64FB6C1A00013ABA643B6100227A613869C1
:400D800079690200520F0E00F600FE61FE691643FE610200D200BA61BB600022FA60B868F9680200520F0E00F50015430200D4000733DB08DB006A46D31A9D4602AB003379
:400DC0007B6414232022BA18D218BB6A1000190010231A0006F037FE786CBB6A1033FA6C190006F030FE796C14232022BA18D418FA6CF86A3B6A0193102300932300FFF72E
:400E00007BFF03007A6895461800BD4615B0F0BD86B003900291019200930023059310E0039A059BD3180299059A8A1811780198059A821812784A40D2B21A70059B013369
:400E40000593059A009B9A42EAD3C04606B0704710B588B00790069105920493049C059A069907980C9B03930B9B02930B9B01930A9B0093230000F003F8C04608B010BD3B
:400E800000B58FB00390029101920093009B0D93039B002B04D0029B1A68019B9A4201D306F07AFD009B002B04D1109B002B01D006F072FD119B002B02D0139B002B01D147
:400EC00006F06AFD029B1B68002B5CD0109B002B59D0029B1B68019AD31A0C930C9B0B93109B0A930B9A0A9B934200D913000993029B1B68039AD318099A0D99180006F0A5
:400F0000A2FD0D9A099BD3180D93109A099BD31A1093029B1A68099BD218029B1A60029B1A68019B9A422ED1109B002B05D10399139A129B1000984704E00399139A119B9A
:400F400010009847029B00221A601CE0029B1B68002B01D006F020FD109A019B9A4205D10D99139A129B1000984704E00D99139A119B100098470D9A019BD3180D93109AED
:400F8000019BD31A1093109A019B9A42DED22CE0029B1B68019AD31A0893089B0793109B0693079A069B934200D913000593029B1B68039AD318059A0D99180006F043FD8D
:400FC0000D9A059BD3180D93109A059BD31A1093029B1A68059BD218029B1A60029B1A68019B9A4201D306F0D7FC109B002BCFD1C0460FB000BDC04600B58BB0039002913D
:4010000001920093009B09930C9B0893039B002B04D0029B1A68019B9A4201D306F0BCFC009B002B04D10D9B002B01D006F0B4FC0E9B002B02D00F9B002B37D106F0ACFC55
:40104000029B1B68002B07D103990F9A0E9B10009847029B019A1A60029B1B68019AD31A0793029B1B6806930D9B0593069A059B934200D913000493039A079BD218049B23
:4010800009990898FFF7C4FE029B1A68049BD21A029B1A600D9A049BD31A0D93089A049BD3180893099A049BD31809930D9B002BC6D1C0460BB000BD00B583B00190009120
:4010C000009B002B07D0009A019B0021180006F0C3FC019B1B78C04603B000BD00B585B0039002910192039B34220021180006F0B3FC039B029A1A60039B019A5A60039BD0
:40110000180000F003F8C04605B000BD00B587B0019002AB180010231A00002106F09CFC019B08331800019B1968019B5A6802AB00F04EFA019B203310211800FFF7BCFFBE
:40114000019B00221A63C04607B000BD00B589B001900091019B0793079B0833180003AA0099012300F04CFAC04609B000BDC04610B588B0079006910592079B203318008E
:40118000079B30331900079B1B681A68069C079B0293054B0193059B00932300FFF758FEC04608B010BDC0464D11000000B583B00190019B1B6B002B1BD0019B20331A0062
:4011C000019B1B6BD018019B1B681A68019B1B6BD31A1A00002106F03FFC019B20331A00019B11001800FFF7B1FF019B00221A6300E0C04603B000BD00B583B001900091BA
:40120000019B1B6B002B01D006F0C6FB019B10331900019B1B681A68009B180006F013FCC04603B000BDC04600B583B001900091009B002B07D0009A019B0021180006F000
:401240000BFC019B1B78C04603B000BD88B0039002910192039B0793029B069317236B4400221A7015E0079B5A1C07921B78DAB2069B591C06911B78DBB25340DBB25AB210
:4012800017236B441B785BB213435AB217236B441A70019B5A1E0192002BE4D117236B441B785A425341DBB2180008B07047C04600B585B00390029101920CE0019B013B1C
:4012C000039AD318029AD2B21A70029B1B0A0293019B013B0193019B002BEFD1029B002B01D006F059FBC04605B000BD00B583B00190019B1800FFF759FFC04603B000BD26
:4013000000B585B00390029101920093009B184A93420CD80099029B02221800FFF7C8FF0299039B02221800FFF722FF12E01149029B02221800FFF7BBFF029B02330099C6
:4013400004221800FFF7B4FF0299039B06221800FFF70EFF009A0199039B1800FFF708FF039B1800FFF7C2FFC04605B000BDC046FFFE0000FEFF000000B585B0039002912E
:4013800001920093099B002B01D1002300E040230A9A023A5208D2B2D200D2B21343DAB2079BDBB2013BDBB21343DAB2029B1A70029B0133069A0099180006F044FB069B11
:4013C0000133029AD318079A08991800FFF770FF019A0299039B1800FFF7CAFEC04605B000BDC04600B585B00390029101920093029BDBB2013BDAB2039B1A70039B013329
:40140000009A0199180006F01EFB009B0133039AD318029A0021180006F01EFBC04605B000BDC04610B5B2B009900891079206933A9B032B06D93A9B102B03D83A9B012248
:40144000134001D006F0A8FA349B012B02D9349B082B01D906F0A0FA099B1A68349BD31A5A1E389B9A4201D006F096FA389B379A349929A8FFF7B6FF29AB089A09991CA845
:4014800000F0F4F8099B1A68349BD11A349A1CAB180000F013F93A9B18AA39991CA800F045F91CAB180000F061F9069B3B9A07991CA800F03BF9089A09990BAB1800FFF73D
:4014C0000DFE099B1A68379C2DA90BA83A9B0493369B0393069B0293349B0193389B00932300FFF749FF369B002B05D0369B359A2DA90BA8FFF704FF069A3B990BAB1800F7
:40150000FFF736FE0BAB1800FFF7F0FE2DAA0BAB11001800FFF770FE002331933A9A18A92DAB1800FFF792FE031E07D101233193069A3B9B11001800FFF776FE2DAB1021D0
:401540001800FFF771FE18AB10211800FFF76CFE319B180032B010BD86B003900291019200930023059310E0039A059BD3180299059A8A1811780198059A821812784A404F
:40158000D2B21A70059B01330593059A009B9A42EAD3C04606B0704782B001900091009B013B0093019A009BD3181A780132D2B21A701B78002B06D1009B002B05D0009BEE
:4015C000013B0093EEE7C04600E0C04602B0704700B585B00390029101920093039B029A1A60039B019A5A60039B08331800029B1A68009B190006F026FAC04605B000BDC3
:4016000010B58AB00390029101920093039B1B681B68099322E0039B08331A00099B029905A8FFF799FF039B1B685C68039B5868039B08331A0005AB1900A047039B0833F1
:401640001900099A019B180006F0FDF9029A099BD3180293019A099BD3180193009B5A1E0092002BD7D1C0460AB010BD00B585B00390029101920093039B34220021180028
:4016800006F0EAF9039B0022DA62029B1A68039B1A63039B029A1A60039B019A5A60039B00229A62039B08331800029B1A68009B190006F0C8F9C04605B000BD00B585B0DB
:4016C000039002910192039B1B681A680299019BCB189A4201D906F05FF9039B029ADA62039B019A1A63C04605B000BD10B584B001900091019B0393039B1B685C68039BFC
:401700005868039B0833009A1900A047039B08331A00039BDB6AD218039B1B6B19001000FFF73AFFC04604B010BDC04610B588B00790069105920493079B18331800079BAD
:4017400028331900079B1B681A68069C079B0393054B0293049B0193059B00932300FFF74BFCC04608B010BDED16000082B00190019B00229A62C04602B0704710B588B052
:401780000190009100230793002306932AE003AB180008231A00002106F05EF916246C4403AB180009F08CF90300238016236B441B88002B14D1002306930DE0019A079BB6
:4017C000D31803A9069A8A1812781A70079B01330793069B01330693069B072BEED901E0002304E0079A009B9A42D0D30123180008B010BD00B587B0019003AB0E221A812A
:4018000003AB019A1A6003AB21229A80064A03A80023002114F012F8044B180006F0D0F90123180007B000BD2824002030A2010000B587B0019003AB14221A8103AB019A33
:401840001A6003AB40229A80064A03A80023002113F0F4FF044B180006F0B2F90123180007B000BD2824002048A2010010B562B6064B180004F044FE05F018FA00F008F80D
:4018800000F066F80023180010BDC046E919000010B5144B180000F001FB202006F0B0F803001A00104B1A60212006F0A9F803001A000E4B1A60202006F0A2F803001A001D
:4018C0000B4B1A60212006F09BF803001A00094B1A60182006F094F803001A00064B1A60C04610BD7D170000102400200824002004240020002400200C24002010B5084BC6
:401900001B68180006F086F8064B1B68180006F081F8054B1B68180006F07CF8C04610BD08240020042400200024002010B5064B1B68180006F06EF8044B1B68180006F050
:4019400069F8C04610BDC046102400200C24002010B582B06B46073300221A7007F022F905F060FA02006B4606331A706B4606331B78002BF2D06B4606331B78522B0ED0E2
:401980006B4606331B78722B09D06B4606331B78442B04D06B4606331B78642BDED10F4B1B78032BDAD001AB00221A8001AC002004F02EFE0300238001AB1B88002B07D0A8
:4019C00001AB1A88064B1100180006F0F9F8C5E7044B180006F084F9C0E7C0462024002060A2010090A2010010B596B00190009156236B4400221A80019B272B36D004D88A
:401A0000012B0AD0262B1FD003E1422B00D1F3E04C2B4AD0282B2ED0FBE07F4B180006F05FF9002004F0F4FD031E08D056236B441A887A4B1100180006F0C2F8E9E0784B8C
:401A4000180006F04DF9E4E0764B180006F048F9754B1B78032B04D0744B180006F040F9D7E0734B180006F03BF9D2E0714B180006F036F9CDE056246C44002004F0C8FDD1
:401A80000300238056236B441B88002B08D056236B441A88684B1100180006F091F8B8E0664B180006F01CF9B3E0009B1493149B9B890E2B20D1624B1868149B5B6821226D
:401AC000190005F0C0FF5F4B180006F079F85C4B1B682121180003F011FA5B4B1A685B4B1B681900100003F081FA031E04D0564B1B681800FFF77EFE149B9B89142B2FD1D1
:401B00004F4B1A68149B5B681900100003F0BEFA031E25D002AB180040231A00002105F09BFF4A4B1868484B1B6802AA190003F021FB02AB1800FFF77BFE414B1868434B6E
:401B40001968434B1B681A0003F0FEF9FFF7D6FE404B18683E4B1B6820221900FFF794F8149B9B89112B38D1149B1B89103B180005F046FF03001393364B1B681A68364B59
:401B80001100180006F01CF8324B1868149B5968149B1B891A00139BFFF7DEF8031E0CD12E4B180005F05CF9139B180005F058F92B4B180005F054F903E02A4B180005F084
:401BC0004FF9244B1B681A68234B1100180005F0F7FF139B180005F01DFF234B1A785B781B021A4300231204120C1B0C1B041343180012F0FDFB0CE04B236B4400221A70C9
:401C00001A4B180006F06CF8FFF778FEFFF78EFEC046C04616B010BDB0A20100C4A20100F0A2010008A30100202400200CA3010028A3010044A3010060A2010090A2010049
:401C40000824002058A301000024002004240020102400200C24002070A3010088A3010094A3010098A3010028240020B0A3010000B587B00390029101920023059309E02F
:401C8000029B5A1C02921B78180005F03FF8059B01330593059A019B9A42F1DB019B180007B000BD00000000000000000000000070B588B00390029101921A006B46033318
:401CC0001A706B4603331B785BB20822D31ADB000133079303980299019A079B002603A55B1920C910CA2D1920C0184720C910CA654120C020C910CA654120C020C910CAC1
:401D0000654120C020C910CA654120C020C910CA654120C020C910CA654120C020C910CA654120C076410390029101920793069605950494069B180008B070BD0000000083
:401D400070B588B00390029101921A006B4603331A706B4603331B785BB20822D31ADB000133079303980299019A079B002603A55B1920C910CA2D1B20C0184720C910CAB9
:401D8000A54120C020C910CAA54120C020C910CAA54120C020C910CAA54120C020C910CAA54120C020C910CAA54120C020C910CAA54120C076410390029101920793069681
:401DC00005950494069B5A425341DBB2180008B070BDC046F0B55F4656464D464446F0B489B00390029101921A006B4603331A70039A029901986B4603331B78013B9B000A
:401E000098465B009946002300270026002504B4002402E02C004246A41A9A46BB46B446AE462A1B87580A59130C92B23E0CBFB21D0075437B4356437A431F041B0CD21933
:401E40005D413704360CD219754153465F4666469B186F410022564175460434444501DCAC42DADD009A53513B463746002604354545CDDD4D45CDDD535104BC6A4603324E
:401E800013700797069605950494C04609B03CBC90469946A246AB46F0BDC04682B00190024B019A1A60C04602B07047BC12002084B001900A006B4603331A700F236B4498
:401EC00000221A7010E00F236B441B785BB29B00019AD31800221A600F236B441B780133DAB20F236B441A700F226A446B460333127852B21B785BB29A42E4DBC04604B020
:401F00007047C04684B001900A006B4603331A70002303930B236B4400221A7012E00B236B441B785BB29B00019AD3181B68039A134303930B236B441B780133DAB20B2368
:401F40006B441A700B226A446B460333127852B21B785BB29A42E2DB039B5A425341DBB2180004B07047C04682B001900A006B4602331A806B46023300229B5E5B111BB234
:401F80009B00019AD3181B686A460232128811001F220A40012191400A001340180002B07047C04684B001900A006B4603331A706B4603331B78013BDAB20F236B441A709F
:401FC00007E00F236B441B78013BDAB20F236B441A700F236B441B787F2B09D80F236B441B785BB29B00019AD3181B68002BE8D00F236B441B780133DBB25BB2180004B03E
:402000007047C04610B586B001900A006B4603331A700F246C446B46033300229A56019B11001800FFF7BEFF030023700F236B441B785BB2002B01D1002325E00F236B446B
:402040001B785BB2124A944663449B00019AD3181B6804930023059305E0049B5B080493059B01330593049B002BF6D10F236B441B785BB29BB2013B9BB25B019AB2059BD3
:402080009BB2D3189BB21BB2180006B010BDC046FFFFFF3F86B0039002916B4607331A7017236B4400221A7017E017236B441B785BB29B00039AD31817226A44127852B273
:4020C000920002998A1812681A6017236B441B780133DAB217236B441A7017226A446B460733127852B21B785BB29A42DDDBC04606B0704786B0039002916B4607331A7096
:402100006B4607331B78013BDAB217236B441A7030E017236B441B785BB29B00039AD3181A6817236B441B785BB29B000299CB181B689A4201D9012322E017236B441B782B
:402140005BB29B00039AD3181A6817236B441B785BB29B000299CB181B689A4202D201235B420DE017236B441B78013BDAB217236B441A7017236B441B787F2BC9D9002388
:40218000180006B07047C04688B0039002916B4607331A70002307936B4607331B78013BDAB21B236B441A701FE01B236B441B785BB29B00039AD3181B6805931B236B4490
:4021C0001B785BB29B00029AD3181B680493059A049B5340079A134307931B236B441B78013BDAB21B236B441A701B236B441B787F2BDAD9079B5A425341DBB2180008B0D6
:402200007047C04600B58FB0039002916B4607331A706B4607331B785BB2029A039904A8FFF78EFD03005A1E9341DBB20D936B46073300229A5604AB11001800FFF762FEBB
:4022400003000C930C9B5A425341DBB21A000D9BDBB2DB18DBB2D31ADBB25BB218000FB000BDC04686B001900A006B4603331A70019B0493002305936B4603331B785BB2B1
:402280009B00019AD31801930BE0019B1B680393039B5A08059B1A43019B1A60039BDB070593019B1A1F0192049A9342EDD8C04606B0704700B587B0039002910192009353
:4022C00008AB1B785BB2019A02990398FFF7F0FC03000593059B002B0AD108AB00229A560399009B1800FFF705FF0300012B07D008AB1B785BB2009A03990398FFF720FD4C
:40230000C04607B000BDC04600B587B0039002910192009308AB1B785BB2019A02990398FFF70EFD03000593059B002B07D008AB1B785BB2009A03990398FFF7B9FCC046AE
:4023400007B000BD10B5ACB00390029101921A006B4603331A7004AB06AA1A6004AB029A5A606B4603331B785BB29BB29B019CB26B46033300229A56019B11001800FFF734
:4023800041FE03009BB2E31A9AB2AA236B441A80AA236B4400229B5E002B00DA1F335B111AB29E236B441A70AA236B4400229B5E894A134004D5013B2022524213430133DD
:4023C0001AB29D236B441A70002329939E236B4400229A5616AB11001800FFF769FD9D236B441B785BB2002B30DD00232B9325E09E236B4400229A562B9BD2182B9B9B00B1
:402400000199CB1819689D236B441B785BB29940299B194316AB9200D1502B9B9B00019AD3181A689D236B441B785BB22021CB1ADA40130029932B9B01332B936B460333FC
:4024400000229A562B9B9A42D2D80EE09E236B441B785BB29B0016AAD0186B46033300229A56019B1900FFF715FE01232B939CE0002328939F236B4400221A704AE004ABD4
:402480002B9A9200D2589F236B441B785BB29B00D3181A689F236B440021595616AB8900CB58D21A289BD31A269304AB2B9A9200D2589F236B441B785BB29B00D3181A6836
:4024C000269B9A4210D004AB2B9A9200D2589F236B441B785BB29B00D3181A68269B9A429B415B42DBB228932B9B0122D21A04AB9200D2589F236B441B785BB29B00D318E1
:40250000269A1A609F236B441B780133DAB29F236B441A709F236B4400229A566B4603331B785BB25B009A42A9DB2B9A289BD31A5A425341DBB22B936B46033300229A56F4
:4025400016AB11001800FFF78DFE6B4603331B785BB25A1E6B4603331B785BB2591E16AB8900C9586B4603330020185616AB8000C358DB07194316AB9200D1506B4603331E
:402580001B785BB29B0016AAD2186B4603331B785BB219001000FFF765FEAA236B441B88013B9AB2AA236B441A80AA236B4400229B5E002B00DB5BE704AB2B9A9200D15862
:4025C0006B46033300229A56039B1800FFF762FDC0462CB010BDC0461F00008000B595B0039002910192009316AB1B785BB2019A029904A8FFF7EEFB16AB1B785BB2009A20
:4026000004A90398FFF79EFEC04615B000BDC04600B595B00390029101920093009B1B785BB2019A029904A8FFF7D4FB009BB0229B5804A9039A10009847C04615B000BDE9
:4026400000B585B0039002910192019B029A02990398FFF7DDFFC04605B000BD00B587B0039002916B4607331A7000230593039B1B68012213400AD06B4607331B785BB2C1
:40268000029A03990398FFF713FB030005936B46073300229A56039B11001800FFF7E2FD059B002B18D06B4607331B785BB20C4A944663449B00039AD3186A460732127864
:4026C00052B207498C466244920003998A181268802109060A431A60C04607B000BDC046FFFFFF3F10B5A6B00390029101921A006B4603331A706B46033300229A56029B9C
:4027000011001800FFF7FEFB031E09D06B46033300229A56039B11001800FFF7C9FBEBE06B46033300229A5602991DAB1800FFF7B1FC6B46033300229A56019915AB1800C0
:40274000FFF7A8FC6B46033300229A560DAB11001800FFF7ADFB0DAB01221A606B46033300229A5605AB11001800FFF7A1FBA6E01DAB1B680122134012D16B46033300225B
:402780009A561DAB11001800FFF76CFD6B46033300229A5601990DAB1800FFF75FFF8EE015AB1B680122134012D16B46033300229A5615AB11001800FFF754FD6B46033308
:4027C00000229A56019905AB1800FFF747FF76E097236B441B785BB2002B38DD6B4603331B785BB215AA1DA91DA8FFF7A9FA6B46033300229A561DAB11001800FFF732FD11
:402800006B46033300229A5605A90DAB1800FFF771FC031E08DA6B4603331B785BB2019A0DA90DA8FFF744FA6B4603331B785BB205AA0DA90DA8FFF783FA6B4603330022DD
:402840009A5601990DAB1800FFF708FF37E06B4603331B785BB21DAA15A915A8FFF770FA6B46033300229A5615AB11001800FFF7F9FC6B46033300229A560DA905AB18007D
:40288000FFF738FC031E08DA6B4603331B785BB2019A05A905A8FFF70BFA6B4603331B785BB20DAA05A905A8FFF74AFA6B46033300229A56019905AB1800FFF7CFFE9724C7
:4028C0006C446B46033300229A5615A91DAB1800FFF710FC0300237097236B441B785BB2002B00D044E76B46033300229A560DA9039B1800FFF7CEFB26B010BD10B598B0F6
:4029000005900491039202935F236B44029A12781A705F236B4400229A56039B11001800FFF7F0FA031E00D0FFE0029A04990EAB1800FFF785FE029B0EAA059906A8FFF78E
:4029400067FE029A0EA90EAB1800FFF779FE029B039A04990498FFF75BFE029A0399039B1800FFF76DFE029B1C1D039A059905985F236B441B785BB200932300FFF79AFC8F
:40298000029B1C1D039A039903985F236B441B785BB200932300FFF78DFC029B1C1D039A059903985F236B441B785BB200932300FFF7AAFC029B039A05990598FFF728FE07
:4029C000029B1C1D059A059903985F236B441B785BB200932300FFF76DFC029B1C1D039A059905985F236B441B785BB200932300FFF760FC059B00211800FFF7B5FA031E1D
:402A00002ED0029B1A1D5F236B441B785BB205990598FFF74DF9030016935F236B4400229A56059B11001800FFF71CFC5F236B441B785BB23E4A944663449B00059AD318B7
:402A40005F226A44127852B239498C466244920005998A181168169AD2070A431A6008E05F236B4400229A56059B11001800FFF7F9FB029A0599039B1800FFF7E1FD029BC5
:402A80001C1D06AA039903985F236B441B785BB200932300FFF738FC029B1C1D06AA039903985F236B441B785BB200932300FFF72BFC029B1C1D039A06A906A85F236B44E3
:402AC0001B785BB200932300FFF71EFC029B06AA05990598FFF79CFD029B1C1D0EAA05990EA85F236B441B785BB200932300FFF70BFC5F236B4400229A560399059B18005C
:402B0000FFF7C8FA5F236B4400229A560499039B1800FFF7BFFA5F236B4400229A560EA9049B1800FFF7B6FA00E0C04618B010BDFFFFFF3F10B590B005900491039207AB14
:402B4000180020231A00002104F086FF07AB03221A603F236B44039A12781A70039A0499059B1800FFF76CFD039B1C1D07AA059905983F236B441B785BB200932300FFF7C2
:402B8000C3FB039B049A05990598FFF741FD039B84331A00039B1C1D059905983F236B441B785BB200932300FFF784FBC04610B010BDC04600B595B0019000910BAB1800CC
:402BC00020231A00002104F047FF0BAB01221A6003AB180020231A00002104F03DFF03AB01221A604D236B44009A12781A70009B191D4D236B441B785BB20BAA0BA8FFF750
:402C000057F84D236B4400229A560BAB11001800FFF7F8F903009BB2013B9AB24E236B441A801EE0009A03A903AB1800FFF708FD4E236B4400229A5E0BAB11001800FFF7A8
:402C400093F9031E05D0009B019A03A903A8FFF7DFFC4E236B441B88013B9AB24E236B441A804E236B4400229B5E012BDADC4D236B4400229A5603A9019B1800FFF70AFAC7
:402C8000C04615B000BDC04600B58FB00190009103AB05211800FFF70BF903AB143305211800FFF705F9009B14331A0003AB1100180000F03FF803AA009901980523FEF76D
:402CC000F7FF03000D93009B05211800FFF7F0F803AB1433009A1900100000F02BF8009A019901980523FEF7E3FF02000D9B9B180D9308E00D9B013B0D930D4A01990198FA
:402D00000523FFF71DF80D9B002BF3D10849019B05221800FFF7EEF9031E05DD044A019901980523FFF70CF8C0460FB000BDC046CCA3010070B58AB005900491059B0433C2
:402D4000049905221800FFF7A5F9059B043305211800FFF787FA049B1B68DA07059B1A60049A059905980523FEF7A2FF030009930523089321E0089B9B00059AD3181B68F5
:402D80001D0000231E00099B009300230193009B019C5B19744106930794089B9B00059AD318069A1A60079B1B00029300230393029B0993089B01330893099B002BDAD120
:402DC000C0460AB070BDC04600B58BB0019000910099019B06221800FFF75CF9009B1833190003AB06221800FFF754F903AA019901980623FEF75CFF0300099303AB002216
:402E00005A6003AB5A6803AB1A60009B9A6903AB9A60009BDA6903ABDA60009B1A6A03AB1A61009B5A6A03AB5A6103AA019901980623FEF73DFF0200099BD3180993009B22
:402E40009A6A03AB9A6003AB9A6803AB1A60009BDA6A03ABDA6003ABDA6803AB5A6003AB00225A6103AB5A6903AB1A6103AA019901980623FEF71CFF0200099BD318099344
:402E800009E00C4A019901980623FEF759FF0200099B9B1A0993099B002BF2D10199054B06221800FFF726F90300012BE9D1C0460BB000BD80A4010010B58EB005900491A9
:402EC000039202931C4A029907AB1800FFF7B8FB194B109A02990498FFF79AFB174C119A07A90598072300932300FFF7E3F9134C049A04990498072300932300FFF7DAF978
:402F00000D4B119A07A90398FFF782FB0B4C039A03990398072300932300FFF7CBF9074C039A03990398072300932300FFF7C2F9C0460EB010BDC04630A5010034A501000C
:402F400010B588B005900491039202930299059B07221800FFF79EF80A99049B07221800FFF798F80B99039B07221800FFF792F81E236B4401221A8014E0059C039A049970
:402F80000598039B0193049B00932300FFF794FF1E236B4400229B5E9BB201339AB21E236B441A801E226A440CAB0021525E00215B5E9A42E1DDC04608B010BD10B594B084
:402FC00005900491039202932B4B199A17990DA8FFF71EFB284B029A0DA90DA8FFF718FB264C0DAA25490DA8072300932300FFF78BF9214B189A169906A8FFF709FB1F4CD7
:403000000DAA06A906A8072300932300FFF752F9194B199A16990DA8FFF7FAFA164B179A18990498FFF7F4FA144C0DAA04990498072300932300FFF73DF90F4A0499039BC3
:403040001800FFF7FDFA0C4B029A03990398FFF7DFFA0A4C039A09490398072300932300FFF752F906A9059B07221800FFF712F8C04614B010BDC04630A5010034A5010074
:4030800010B59EB0079006910592049376236B4401221A700FAB18001C231A00002104F0DBFC0FAB01221A60209916AB07221800FEF7F0FF2D4C049A2C4908A807230093A6
:4030C0002300FFF721F977236B4400221A7043E076236B441B785BB21BB216AC059A06990798029308AB01930FAB00932300FFF727FF049C059A069907980FAB039316AB3B
:403100000293069B0193079B00932300FFF756FF079916AB07221800FEF7BCFF06990FAB07221800FEF7B6FF059908AB07221800FEF7B0FF76236B441B78DB18DAB2762363
:403140006B441A7077236B441B785BB2DBB20133DAB277236B441A7077236B441B785BB2062BB5DDC0461EB010BDC04634A5010010B5B0B003900291039C0CAA13A91AA8C2
:40318000039B00932300FFF77BFF1AAC21AA28A905A80CAB019313AB00932300FFF78CFEBE236B4401221A802DE005A91AAB07221800FEF76FFF28A913AB07221800FEF7C7
:4031C00069FF21A90CAB07221800FEF763FF1AAC21AA28A905A80CAB019313AB00932300FFF76AFE05AB07211800FEF78BFE031E10D1BE236B4400229B5E9BB201339AB23A
:40320000BE236B441A80BE236B4400229B5E5F2BCBDD00E0C046074A13A921A80723FFF761FA054B21AA1AA90398FFF7F1F9C04630B010BD34A5010030A5010000B58BB0A4
:40324000019000910099019B07221800FEF722FF02AB00229A6002AB9A6802AB5A6002AB5A6802AB1A60009BDA6902ABDA60009B1A6A02AB1A61009B5A6A02AB5A61009BBD
:403280009A6A02AB9A6102AA019901980723FEF70FFD03000993009BDA6A02ABDA60009B1A6B02AB1A61009B5A6B02AB5A6102AB00229A6102AA019901980723FEF7F8FC27
:4032C0000200099BD3180993009BDA6902AB1A60009B1A6A02AB5A60009B5A6A02AB9A60009B9A6A02ABDA60009BDA6A02AB1A61009B1A6B02AB5A61009B5A6B02AB9A61F3
:4033000002AA019901980723FEF71AFD0200099B9B1A0993009BDA6A02AB1A60009B1A6B02AB5A60009B5A6B02AB9A6002AB00229A6102AB9A6902AB5A6102AB5A6902ABEE
:403340001A6102AB1A6902ABDA6002AA019901980723FEF7F5FC0200099B9B1A0993099B002B17DA134A019901980723FEF7A0FC0200099BD3180993099B002BF2DB15E00C
:403380000C4A019901980723FEF7DAFC0200099B9B1A0993099B002BF2D10199054B07221800FEF7A7FE0300012BE9D1C0460BB000BDC04634A50100014B18007047C046D9
:4033C000E4A5010000B58DB0019000910099019B08221800FEF75EFE03AB00229A6003AB9A6803AB5A6003AB5A6803AB1A60009BDA6A03ABDA60009B1A6B03AB1A61009B42
:403400005A6B03AB5A61009B9A6B03AB9A61009BDA6B03ABDA6103AA03A903A80823FEF747FC03000B9303AA019901980823FEF73FFC02000B9BD3180B93009B1A6B03AB0A
:40344000DA60009B5A6B03AB1A61009B9A6B03AB5A61009BDA6B03AB9A6103AB0022DA6103AA03A903A80823FEF722FC02000B9BD3180B9303AA019901980823FEF718FC65
:4034800002000B9BD3180B93009B1A6A03AB1A60009B5A6A03AB5A60009B9A6A03AB9A6003AB00225A6103AB5A6903AB1A6103AB1A6903ABDA60009B9A6B03AB9A61009B64
:4034C000DA6B03ABDA6103AA019901980823FEF7EFFB02000B9BD3180B93009B5A6A03AB1A60009B9A6A03AB5A60009BDA6A03AB9A60009B5A6B03ABDA60009B9A6B03ABD8
:403500001A61009BDA6B03AB5A61009B5A6B03AB9A61009B1A6A03ABDA6103AA019901980823FEF7C5FB02000B9BD3180B93009BDA6A03AB1A60009B1A6B03AB5A60009B9B
:403540005A6B03AB9A6003AB00225A6103AB5A6903AB1A6103AB1A6903ABDA60009B1A6A03AB9A61009B9A6A03ABDA6103AA019901980823FEF7E4FB02000B9B9B1A0B9376
:40358000009B1A6B03AB1A60009B5A6B03AB5A60009B9A6B03AB9A60009BDA6B03ABDA6003AB00225A6103AB5A6903AB1A61009B5A6A03AB9A61009BDA6A03ABDA6103AA49
:4035C000019901980823FEF7BBFB02000B9B9B1A0B93009B5A6B03AB1A60009B9A6B03AB5A60009BDA6B03AB9A60009B1A6A03ABDA60009B5A6A03AB1A61009B9A6A03ABD3
:403600005A6103AB00229A61009B1A6B03ABDA6103AA019901980823FEF792FB02000B9B9B1A0B93009B9A6B03AB1A60009BDA6B03AB5A6003AB00229A60009B5A6A03AB8C
:40364000DA60009B9A6A03AB1A61009BDA6A03AB5A6103AB00229A61009B5A6B03ABDA6103AA019901980823FEF76AFB02000B9B9B1A0B930B9B002B17DA134A019901983A
:403680000823FEF715FB02000B9BD3180B930B9B002BF2DB15E00C4A019901980823FEF74FFB02000B9B9B1A0B930B9B002BF2D10199054B08221800FEF71CFD0300012B2B
:4036C000E9D1C0460DB000BDE8A5010010B598B00590049103920293039B08211800FEF711FC031E00D08AE0029A049907AB1800FEF7A6FF029B07AA05990FA8FEF788FFA9
:40370000029A0599059B1800FEF79AFF029A07A907AB1800FEF794FF029B039A04990398FEF776FF029B1C1D059A05990498082300932300FEF7BEFD029B1C1D059A04993D
:403740000498082300932300FEF7B4FD049B00211800FEF709FC031E17D0029B1A1D049904980823FEF7A4FA03001793049B08211800FEF777FD049B1C33049A1C32116838
:40378000179AD2070A431A6004E0049B08211800FEF768FD029A0499059B1800FEF750FF029B1C1D0FAA05990598082300932300FEF7AAFD029B1C1D0FAA05990598082329
:4037C00000932300FEF7A0FD029B1C1D059A0FA90FA8082300932300FEF796FD029B0FAA04990498FEF714FF029B1C1D07AA04990498082300932300FEF786FD00E0C0469E
:4038000018B010BD10B586B0059004910392039A0499059B1800FEF713FF039B049A05990598FEF7F5FE039B84331A00039B1C1D05990598082300932300FEF73BFDC0464C
:4038400006B010BD00B595B00190009103AB08211800FEF72DFB03AB203308211800FEF727FB009B20331A0003AB1100180000F03FF803AA009901980823FEF719FA030029
:403880001393009B08211800FEF712FB03AB2033009A1900100000F02BF8009A019901980823FEF705FA0200139B9B18139308E0139B013B13930D4A019901980823FEF796
:4038C0003FFA139B002BF3D10849019B08221800FEF710FC031E05DD044A019901980823FEF72EFAC04615B000BDC0469CA6010070B58AB00590049100230993132304AAF9
:403900009446634400221A703AE0132304AA944663441B785BB29B00049AD3181B68009300230193244A00230098019904F008F803000C00099A1500002216005B1974416B
:4039400006930794132304AA944663441B785BB29B00059AD318069A1A60079B1B00029300230393029B0993132304AA944663441B780133DAB2132304A98C4663441A70ED
:40398000132304AA944663441B785BB2072BBCDD059B2033099A1A60059B24331C00059B181D059B191D049A0823FEF781F903002360C0460AB070BDD103000000B58DB0F8
:4039C0000390029101920093009A019904AB1800FEF736FE009B04AA03990398FEF718FE009B019A04A904A8FEF712FE009B04AA02990298FEF70CFEC0460DB000BDC04635
:403A000010B58EB0039002910192009337236B44119A12781A70109B002B09D037236B4400229A56109905AB1800FEF733FB0BE037236B4400229A5605AB11001800FEF73D
:403A400037FA05AB01221A6037236B4400229A560399019B1800FEF71DFB37236B4400229A560299009B1800FEF714FB119B05AA02990398FFF7A2FF119BA4229C58119BA9
:403A800005AA02990398A047119B05AA00990198FFF794FFC0460EB010BDC04610B590B005900491039202933F236B44129A12781A70129B1C1D059A039907A83F236B4482
:403AC0001B785BB200932300FEF71EFC129A07A907AB1800FEF7B4FD129B07AA05990598FEF796FD129B07AA03990398FEF790FD129B1C1D049A029902983F236B441B7800
:403B00005BB200932300FEF7FFFB129A029907AB1800FEF795FD129B1C1D059A07A907A83F236B441B785BB200932300FEF7ECFB129B1C1D039A07A907A83F236B441B788E
:403B40005BB200932300FEF7DFFB129B1C1D059A039903983F236B441B785BB200932300FEF7D2FB129B039A04990498FEF750FD129B1C1D07AA059903983F236B441B7895
:403B80005BB200932300FEF7BFFB129B039A02990298FEF73DFD129B1C1D049A029902983F236B441B785BB200932300FEF7ACFB3F236B4400229A5607A9039B1800FEF7AB
:403BC00069FAC04610B010BD10B5A0B005900491039202937F236B44229A12781A70229B1C1D059A039917A87F236B441B785BB200932300FEF788FB229A17A917AB1800E0
:403C0000FEF71EFD229B17AA05990598FEF700FD229B17AA03990398FEF7FAFC229B1C1D049A029917A87F236B441B785BB200932300FEF73FFB229B1C1D049A029902989C
:403C40007F236B441B785BB200932300FEF75CFB229B1C1D059A03990FA87F236B441B785BB200932300FEF74FFB229B0FAA04990498FEF7CDFC229B1C1D039A05990FA82E
:403C80007F236B441B785BB200932300FEF712FB229A0299039B1800FEF7D2FC229B1C1D0FAA039903987F236B441B785BB200932300FEF729FB229B1C1D039A059907A805
:403CC0007F236B441B785BB200932300FEF71CFB229B07AA02990298FEF79AFC229B1C1D049A029902987F236B441B785BB200932300FEF709FB229A17A907AB1800FEF73F
:403D00009FFC229B1C1D0FAA07A907A87F236B441B785BB200932300FEF7F6FA229B1C1D059A07A90FA87F236B441B785BB200932300FEF7E9FA229B17AA0FA90FA8FEF7F1
:403D400067FC229B1C1D049A0FA904987F236B441B785BB200932300FEF7D6FA7F236B4400229A5607A9059B1800FEF793F9C04620B010BD10B5B0B0059004910392029324
:403D8000BD236B44339A12781A70BD236B4400229A5604991EAB20331800FEF77BF9BD236B441B785BB29B00049AD118BD236B4400229A560EAB20331800FEF76BF90EAC8F
:403DC0001EAA0EAB203319001EAB20331800339B0193029B00932300FFF712FE32AB1B88023B9AB2BE236B441A8049E0BE236B4400229A5E039B11001800FEF7B5F8030075
:403E00005A425341DBB22E932E9B0122D31A1EAA5B01D0182E9B0122D31A0EAA5B01D1181EAA2E9B5B01D4180EAA2E9B5B01D218339B009313002200FFF7C6FE1EAA2E9BC8
:403E40005B01D0180EAA2E9B5B01D1182E9B0122D31A1EAA5B01D4182E9B0122D31A0EAA5B01D218339B009313002200FFF716FEBE236B441B88013B9AB2BE236B441A80F3
:403E8000BE236B4400229B5E002BAFDC039B00211800FEF769F803005A425341DBB22E932E9B0122D31A1EAA5B01D0182E9B0122D31A0EAA5B01D1181EAA2E9B5B01D4185F
:403EC0000EAA2E9B5B01D218339B009313002200FFF77AFE339B1C1D1EAA1EAB2033190006A8BD236B441B785BB200932300FEF70BFA2E9B0122D31A0EAA5B01D218339BC1
:403F000006A906A8FEF784FB339B049A06A906A8FEF77EFB339B1A1DBD236B441B785BB206A906A8FEF7DEFBBD236B441B785BB29B00049AD218339B06A906A8FEF768FB45
:403F40002E9B0122D31A1EAA5B01D218339B06A906A8FEF75DFB1EAA2E9B5B01D0180EAA2E9B5B01D1182E9B0122D31A1EAA5B01D4182E9B0122D31A0EAA5B01D218339BB9
:403F8000009313002200FFF789FD339B06AA0EA91EA8FFF713FDBD236B4400229A561EA9059B1800FEF776F8BD236B441B785BB29B00059AD018BD236B4400229A560EAB8E
:403FC0001900FEF767F8C04630B010BD00B587B00390029101920093009B02229B5E1F33002B00DA1F335B111A0017236B441A7005AB009A52881A80009B24331A0017230B
:404000006B441B785BB203990298FDF751FE031E13D105AB00229A5E17236B441B785BB25B019A420BDA05AB00229A5E029B11001800FDF799FF031E01D0012300E000230E
:404040000493009B24331A0017236B441B785BB202990198FDF72CFE049B180007B000BD10B59AB005900491039207AB11AA1A6007AB09AA5A60039B09AA11A90498FFF726
:40408000A5FF03001993039B44331900199B5A425341DBB21A0007AB9200D458039B02229B5E9BB201339BB21BB20598039A0192009300232200FFF75DFE039B1B785BB2FA
:4040C000DBB2DB18DBB25AB2059B11001800FDF719FF031E01D0002300E0012318001AB010BDC04686B003900291019217236B4400221A7023E0029B5A1E17236B441B78EC
:404100005BB2D31A049317236B441B785BB2039AD218049B9B089B000199CB181968049B03200340DB00D9400B00DBB2137017236B441B780133DAB217236B441A70172306
:404140006B4400229A56029B9A42D4DBC04606B07047C04610B586B0039002910192019B0333002B00DA03339B105AB2039B11001800FDF79DFE17236B4400221A7028E072
:40418000019B5A1E17236B441B785BB2D31A0493049B9A0893000399CB18920003998A18116817226A44127852B20298821812781400049A03200240D200944022000A43E3
:4041C0001A6017236B441B780133DAB217236B441A7017236B4400229A56019B9A42CFDBC04606B010BDC04610B588B0039002916B4607331A7001235B42069316246C440E
:404200006B46073300229A56029B11001800FDF7F9FE03002380314B1B68002B01D1002358E00023079351E02C4B1B686A460732127852B292001100039A10009847031E24
:4042400001D1002346E06B4607331B785BB2244A944663449B00039AD3186A460732127852B21F498C466244920003998A18126869460731097849B289B2490188B216218C
:4042800069440988411A89B209B208000699C1400A401A606B46073300229A56039B11001800FDF72FFE031E0DD16B46073300229A560399029B1800FDF7A4FF0300012B0B
:4042C00001D1012306E0079B01330793079B3F2BAAD90023180008B010BDC046BC120020FFFFFF3F00B59FB003900291019200231D934AE0019B24331900019B02229B5E74
:404300001F33002B00DA1F335B115AB215AB1800FFF76AFF031E01D100233AE0019A15A905AB1800FFF79CFE031E2BD0019B02229B5E0733002B00DA0733DB10190015AA33
:40434000029B1800FFF7CEFE019B5B785BB2190005AA039B1800FFF7C5FE019B5B785BB21A00039B9818019B5B785BB21900019B1B785BB29B0005AAD3181A00FFF7B2FE69
:40438000012306E01D9B01331D931D9B3F2BB1D9002318001FB000BD30B5ADB0059004910392029307AB11AA1A6007AB09AA5A6000232B93AB236B44029A12781A70AA236D
:4043C0006B44029A52781A70029B02229B5E0733002B00DA0733DB101A00049911AB1800FFF7B8FEAA236B4400229A56059919AB1800FFF7AFFEAB236B441B785BB29B0066
:4044000019AAD018AA236B441B785BB2059AD118AA236B441B785BB21A00FFF79BFE029B09AA11A911A8FFF7D1FD03002993274B1B68002B15D007AB299A9200D058029B51
:40444000191DAB236B441B785BB21A00FFF7CCFE031E01D1002336E007AB299A9200D3582B93299B5A425341DBB21A0007AB9200D458029B02229B5E9BB201339BB21BB293
:404480002B9D19A919A8029A019200932B002200FFF770FCAA236B440021595619AA039B1800FFF71FFE029B1B785BB2DBB2DB18DBB25AB219AB11001800FDF723FD03000E
:4044C0005A425341DBB218002DB030BDBC12002086B003900291019217236B4400221A7016E017236B441B785BB20133029AD31817226A44127852B203998A1812781A70AA
:4045000017236B441B780133DAB217236B441A70019B5B785BB217226A44127852B29A42DFDB019B5B785BB25B00013B039AD3181B7801221340DBB20233DAB2029B1A702C
:40454000C04606B07047C04600B597B0039002910192019B1B785BB29B0005AAD3181593039B591C019B5B785BB21A0005AB1800FFF7F0FD019BAC229B58019A05A915984D
:404580009847019BA8229B580199159A10009847159B1B68039A127853400122134008D0019B191D019B1B785BB2159A1598FDF7C7FB019B5B785BB2190005AA029B180037
:4045C000FFF790FD019B5B785BB21A00029B9818019B5B785BB21900159B1A00FFF782FDC04617B000BDC04600B58BB00390029101920093009B02229B5E0733002B00DABE
:404600000733DB100793009B02229B5E1F33002B00DA1F335B110693019A079B9A4201D9079B0193069B5AB2039B11001800FDF73FFC019A0299039B1800FFF78BFD019B83
:40464000DB00009A0221525E93423AD9019BDB00009A0221525E9B1A059300230993069B9B00039AD318089310E0089B1B680493049A059BDA40099B1A43089B1A60059BF8
:404680002022D31A049A9A4013000993089B1A1F0892039A9342E8D8009B2433069A52B203991800FDF726FD0300012B0AD0009B24331A00069B5BB203990398FDF740FB72
:4046C00000E0C0460BB000BD10B5AAB0059004910392029316AB20AA1A6016AB18AA5A60A7236B442D9A12781A702D9B02229B5E1F33002B00DA1F335B111A00A6236B44C7
:404700001A7029AB2D9A52881A80A7236B4400229A56029B11001800FDF7F4FB031E0DD12D9B24331800A6236B4400229A56029B1900FDF767FD0300012B01D00023EEE0ED
:404740002D9B18AA20A90298FFF740FC030028932D9B44331900289B5A425341DBB21A0016AB9200D45829AB1B8801339BB21BB206A82D9A0192009300232200FFF7FAFA5C
:40478000A7236B4400229A5606AB11001800FDF7B9FB031E01D00023C1E0624B1B68002B0CD1A6236B4400229A5620AB11001800FDF77EFB20AB01221A600EE02D9B24339E
:4047C0001900A6236B4400229A5620AB1800FFF70BFD031E01D10023A1E02D9B24331C0020AA02990298A6236B441B785BB200932300FDF7F3FE2D9B24331A00A6236B4400
:404800001B785BB202990298FDF76CFF2D9B24331C0020AA02990298A6236B441B785BB200932300FDF7DAFE2D9B5B785BB2190006AA2C9B1800FFF755FC2D9B02229B5EF4
:404840000733002B00DA0733DB101A00059920AB1800FFF77FFCA6236B441B785BB25A1E18AB92000021D150A7236B4400229A5606A918AB1800FDF70DFC2D9B24331C0054
:4048800018AA20A918A8A6236B441B785BB200932300FDF7A3FE2D9B039A049920A8FFF7A3FE2D9B24331C0018AA20A918A8A6236B441B785BB200932300FDF7FBFC2D9BE2
:4048C00024331C00029A18A918A8A6236B441B785BB200932300FDF781FEA6236B4400229A5618AB11001800FDF78CFB03001A002D9B5B785BB2DB009A4201DD00230EE08B
:404900002D9B5B785BB21A002C9B98182D9B5B785BB2190018AB1A00FFF7E4FB012318002AB010BDBC12002010B590B0059004910392029300230F9325E0129B24331900BA
:40494000129B02229B5E1F33002B00DA1F335B115AB207AB1800FFF747FC031E01D1002315E007AC039A04990598129B0193029B00932300FFF7A8FE031E01D0012306E088
:404980000F9B01330F930F9B3F2BD6D90023180010B010BD82B002006B4606331A8001AB0A1C1A8001AB6A46063210881B8819B202B2914200DA031C1BB2180002B0704760
:4049C00030B5FFB00590049103920293F623FF336B44829A12781A70829B02229B5E1F33002B00DA1F335B111A007DAB1A707DAB1B785BB25A1E4AAB92000021D1507DAB59
:404A00001B785BB25A1EDC4B7EA98C46634492000021D1507DAB1B785BB25A1ED74B7EA98C46634492000021D150829B5B785BB21A00059916AB1800FFF78CFBF623FF3397
:404A40006B441B785BB29B0016AAD018829B5B785BB21A00059B9918829B5B785BB21A00FFF778FB829B5B785BB21A0002990EAB1800FFF76FFB829B5B785BB21A00029B25
:404A80009918829B5B785BB21A0006AB1800FFF761FBF623FF336B4400229A560EAB11001800FDF72FFA031E0BD1F623FF336B4400229A5606AB11001800FDF723FA031EF3
:404AC00001D0002314E2829B243318007DAB00229A560EAB1900FDF70DFB0300012B0CD1829B243318007DAB00229A5606AB1900FDF700FB0300012B01D00023F8E1829B94
:404B000024331A007DAB1B785BB206A962A8FDF7E9FD7DAB1B785BB25A1E72AB92000021D150829B039A049972A8FFF75DFD829B24331C0062AA72A972A87DAB1B785BB21E
:404B400000932300FDF74AFD829B24331C0062AA0EA96AA87DAB1B785BB200932300FDF73DFDF623FF336B4400229A5616A952AB1800FDF78FFAF623FF336B441B785BB23C
:404B80009B0052AAD018F623FF336B441B785BB29B0016AAD118F623FF336B441B785BB21A00FDF777FA829B44331900F623FF336B4400229A563AAB1800FDF76BFA829B53
:404BC00044331A00F623FF336B441B785BB29B00D118F623FF336B4400229A5632AB1800FDF758FA829B1C1D3AAA52A962A8F623FF336B441B785BB200932300FDF784FBBD
:404C0000F623FF336B441B785BB29B0052AAD41852AA32A93AA8829B00932300FEF73EFF829B1A1DF623FF336B441B785BB262A962A8FDF757FDF623FF336B441B785BB2B4
:404C40009B0052AAD118829B62AA52A8FEF7B6FE4B4B7EAA9446634400221A60829B44331A00474B7EA98C4663445A60444B7EAA9446634416AA9A60414B7EAA944663444C
:404C800052AADA607DAB00229A5672AB11001800FDF7B8F903001D007DAB00229A566AAB11001800FDF7AEF90300F92464006C4419002800FFF76EFE03002380F9235B0072
:404CC0006B441B88013B9BB21AB272AB11001800FDF74AF903005A1E9341DBB21C00F9235B006B441B88013B9BB21AB26AAB11001800FDF739F9031E01D0022300E00023FC
:404D000022001A431E4B7EA98C4663449200D3587B93F623FF336B4400229A567B994AAB1800FDF7B7F9F623FF336B441B785BB29B007B9AD118F623FF336B4400229A5610
:404D400042AB1800FDF7A6F9F623FF336B4400229A5662AB11001800FDF7AAF862AB01221A60F9235B006B441B88023B9AB2FB235B006B441A8080E040FEFFFF20FEFFFF4D
:404D8000A0FEFFFF829BA4229C58829B62AA42A94AA8A047FB235B006B4400229A5E72AB11001800FDF7E0F803005A1E9341DBB21C00FB235B006B4400229A5E6AAB1100DF
:404DC0001800FDF7D1F8031E01D0022300E0002323437A93484B7EAA944663447A9A9200D3587B937B9B002B3DD0F623FF336B4400229A567B993AAB1800FDF74BF9F6237A
:404E0000FF336B441B785BB29B007B9AD118F623FF336B4400229A5632AB1800FDF73AF9829B62AA32A93AA8FEF7C8FD829B1C1D3AAA4AA92AA8F623FF336B441B785BB2F7
:404E400000932300FDF760FA42AC4AAA32A93AA8829B00932300FEF721FE829B2AAA62A962A8FDF7D5FBFB235B006B441B88013B9AB2FB235B006B441A80FB235B006B44A1
:404E800000229B5E002B00DB7CE7829B1A1DF623FF336B441B785BB262A962A8FDF722FC829B62AA42A94AA8FEF788FD829B243318007DAB00229A564AAB1900FDF71AF9FE
:404EC0000300012B09D0829B24331A007DAB1B785BB24AA94AA8FCF733FFF623FF336B4400229A560EA94AAB1800FDF74DF9030018007FB030BDC046A0FEFFFF00B585B07D
:404F0000019000913C2002F075FE002303930CE0019A039BD3181B781A00094B1100180002F04EFE039B01330393039A009B9A42EED3044B180002F0D3FEC04605B000BD7E
:404F40004CA7010054A7010000B597B0039002910192214B180002F0C3FEFEF72DFA0300159305AB180040231A00002102F074FD159A05A9039B1800FFF7E6FA174B180062
:404F800002F01EFE05AB40211800FFF7B7FF144B180002F015FE029B20211800FFF7AEFF159B019A029905A8FFF7F6F9031E01D100230DE00B4B180002F092FE0A4B180021
:404FC00002F0FEFD019B20211800FFF797FF0123180017B000BDC04658A70100A8A70100C8A70100E0A7010024A8010000B595B001900091204B180002F072FEFEF7DCF99D
:405000000300139303AB180040231A00002102F023FD139A009903AB1800FFF763F9031E01D1002325E0154B180002F0C9FD009B20211800FFF762FF114B180002F0C0FD3A
:4050400003AB40211800FFF759FF139A019903AB1800FFF73DFA0B4B180002F0B1FD019B21211800FFF74AFF074B180002F038FE0123180015B000BD30A80100C8A70100A5
:405080007CA8010094A80100B4A8010000B5B9B003900291314B180002F022FEFEF78CF9030037932E4B180002F08AFD039B21211800FFF723FF26AB180040231A0000215F
:4050C00002F0CAFC379A26A9039B1800FFF73CFA244B180002F074FD26AB40211800FFF70DFF1EAB180020231A00002102F0B4FC04AB180000F09AF826A904AB40221800FE
:4051000001F040F81EAA04AB1100180001F070F8154B180002F054FD1EAB20211800FFF7EDFE124B180002F04BFD029B40211800FFF7E4FE029A1EA926A8379B0093130049
:405140002022FFF73DFC03003693094B180002F0C7FD369B180039B000BDC04604A9010050A9010074A9010098A90100B4A90100CCA9010000B5ABB0059004910392264B1F
:40518000180002F0ADFDFEF717F903002993234B180002F015FD049B21211800FFF7AEFE20AB180020231A00002102F055FC06AB180000F03BF8049906AB2122180000F029
:4051C000E1FF20AA06AB1100180001F011F8144B180002F0F5FC20AB20211800FFF78EFE039A20A90598299B009313002022FFF79BFB030028930B4B180002F0E1FC039B5D
:4052000040211800FFF77AFE074B180002F068FD289B18002BB000BD1CAA010094A8010068AA010084AA010098AA010010B582B00190019B0F4A1A60019B0F4A5A60019B88
:405240000E4A9A60019B0E4ADA60019B0D4A1A61019B0D4A5A61019B0C4A9A61019B0C4ADA61019A0023002413625462C04602B010BDC04667E6096A85AE67BB72F36E3CBC
:405280003AF54FA57F520E518C68059BABD9831F19CDE05B30B59DB001900091019B1B681A93019B5B681993019B9B681893019BDB681793019B1B691693019B5B691593F1
:4052C000019B9B691493019BDB69139300231B9300F0D1FE169B0622D3411A00169B0B21CB415A40169B1921CB415A401599149B4B4016991940149B4B40D218EF4B1B9934
:405300008900CB58D2181B9B002B27D003AB196803AB9B6B1120C341180003AB9B6B1324E341584003AB9B6B9B0A584003AB5B6AC01803AB5B680724E3411C0003AB5B689F
:405340001225EB415C4003AB5B68DB086340C318C91803AB196003AB1B6805E0009B196803AB196003AB1B68D318139AD3181393179A139BD31817931A9B0222D3411A00A6
:405380001A9B0D21CB415A401A9B1621CB415A401A9B199919401A98199B0343189803400B43D318139AD3181393179B0622D3411A00179B0B21CB415A40179B1921CB4178
:4053C0005A401699159B4B4017991940159B4B40D2181B9B591CB94B8900CB58D2181B9B002B27D003AB596803ABDB6B1120C341180003ABDB6B1324E341584003ABDB6BD3
:405400009B0A584003AB9B6AC01803AB9B680724E3411C0003AB9B681225EB415C4003AB9B68DB086340C318C91803AB596003AB5B6805E0009B596803AB596003AB5B68F4
:40544000D318149AD3181493189A149BD3181893139B0222D3411A00139B0D21CB415A40139B1621CB415A40139B1A99194013981A9B0343199803400B43D318149AD318D7
:405480001493189B0622D3411A00189B0B21CB415A40189B1921CB415A401799169B4B4018991940169B4B40D2181B9B991C834B8900CB58D2181B9B002B27D003AB9968B2
:4054C00003AB1B681120C341180003AB1B681324E341584003AB1B689B0A584003ABDB6AC01803ABDB680724E3411C0003ABDB681225EB415C4003ABDB68DB086340C31833
:40550000C91803AB996003AB9B6805E0009B996803AB996003AB9B68D318159AD3181593199A159BD3181993149B0222D3411A00149B0D21CB415A40149B1621CB415A4022
:40554000149B139919401498139B03431A9803400B43D318159AD3181593199B0622D3411A00199B0B21CB415A40199B1921CB415A401899179B4B4019991940179B4B400D
:40558000D2181B9BD91C4D4B8900CB58D2181B9B002B27D003ABD96803AB5B681120C341180003AB5B681324E341584003AB5B689B0A584003AB1B6BC01803AB1B69072428
:4055C000E3411C0003AB1B691225EB415C4003AB1B69DB086340C318C91803ABD96003ABDB6805E0009BD96803ABD96003ABDB68D318169AD31816931A9A169BD3181A9329
:40560000159B0222D3411A00159B0D21CB415A40159B1621CB415A40159B149919401598149B0343139803400B43D318169AD31816931A9B0622D3411A001A9B0B21CB419C
:405640005A401A9B1921CB415A401999189B4B401A991940189B4B40D2181B9B191D174B8900CB58D2181B9B002B29D003AB196903AB9B681120C341180003AB9B68132403
:40568000E341584003AB9B689B0A584003AB5B6BC01803AB5B690724E3411C0003AB5B691225EB415C4003AB5B69DB086340C318C91803AB196103AB1B6907E0E4AA010022
:4056C000009B196903AB196103AB1B69D318179AD3181793139A179BD3181393169B0222D3411A00169B0D21CB415A40169B1621CB415A40169B159919401698159B0343A0
:40570000149803400B43D318179AD3181793139B0622D3411A00139B0B21CB415A40139B1921CB415A401A99199B4B4013991940199B4B40D2181B9B591DF04B8900CB58B6
:40574000D2181B9B002B27D003AB596903ABDB681120C341180003ABDB681324E341584003ABDB689B0A584003AB9B6BC01803AB9B690724E3411C0003AB9B691225EB41E9
:405780005C4003AB9B69DB086340C318C91803AB596103AB5B6905E0009B596903AB596103AB5B69D318189AD3181893149A189BD3181493179B0222D3411A00179B0D2159
:4057C000CB415A40179B1621CB415A40179B169919401798169B0343159803400B43D318189AD3181893149B0622D3411A00149B0B21CB415A40149B1921CB415A401399E2
:405800001A9B4B40149919401A9B4B40D2181B9B991DBA4B8900CB58D2181B9B002B27D003AB996903AB1B691120C341180003AB1B691324E341584003AB1B699B0A584056
:4058400003ABDB6BC01803ABDB690724E3411C0003ABDB691225EB415C4003ABDB69DB086340C318C91803AB996103AB9B6905E0009B996903AB996103AB9B69D318199A06
:40588000D3181993159A199BD3181593189B0222D3411A00189B0D21CB415A40189B1621CB415A40189B179919401898179B0343169803400B43D318199AD3181993159BB7
:4058C0000622D3411A00159B0B21CB415A40159B1921CB415A401499139B4B4015991940139B4B40D2181B9BD91D844B8900CB58D2181B9B002B27D003ABD96903AB5B69E5
:405900001120C341180003AB5B691324E341584003AB5B699B0A584003AB1B68C01803AB1B6A0724E3411C0003AB1B6A1225EB415C4003AB1B6ADB086340C318C91803AB0A
:40594000D96103ABDB6905E0009BD96903ABD96103ABDB69D3181A9AD3181A93169A1A9BD3181693199B0222D3411A00199B0D21CB415A40199B1621CB415A40199B1899AB
:4059800019401998189B0343179803400B43D3181A9AD3181A93169B0622D3411A00169B0B21CB415A40169B1921CB415A401599149B4B4016991940149B4B40D2181B9B88
:4059C000083319004D4B8900CB58D2181B9B002B27D003AB196A03AB9B691120C341180003AB9B691324E341584003AB9B699B0A584003AB5B68C01803AB5B6A0724E3417E
:405A00001C0003AB5B6A1225EB415C4003AB5B6ADB086340C318C91803AB196203AB1B6A05E0009B196A03AB196203AB1B6AD318139AD3181393179A139BD31817931A9B96
:405A40000222D3411A001A9B0D21CB415A401A9B1621CB415A401A9B199919401A98199B0343189803400B43D318139AD3181393179B0622D3411A00179B0B21CB415A4057
:405A8000179B1921CB415A401699159B4B4017991940159B4B40D2181B9B09331900174B8900CB58D2181B9B002B29D003AB596A03ABDB691120C341180003ABDB69132486
:405AC000E341584003ABDB699B0A584003AB9B68C01803AB9B6A0724E3411C0003AB9B6A1225EB415C4003AB9B6ADB086340C318C91803AB596203AB5B6A07E0E4AA01001B
:405B0000009B596A03AB596203AB5B6AD318149AD3181493189A149BD3181893139B0222D3411A00139B0D21CB415A40139B1621CB415A40139B1A99194013981A9B03439C
:405B4000199803400B43D318149AD3181493189B0622D3411A00189B0B21CB415A40189B1921CB415A401799169B4B4018991940169B4B40D2181B9B0A331900F14B8900AA
:405B8000CB58D2181B9B002B27D003AB996A03AB1B6A1120C341180003AB1B6A1324E341584003AB1B6A9B0A584003ABDB68C01803ABDB6A0724E3411C0003ABDB6A1225E8
:405BC000EB415C4003ABDB6ADB086340C318C91803AB996203AB9B6A05E0009B996A03AB996203AB9B6AD318159AD3181593199A159BD3181993149B0222D3411A00149B96
:405C00000D21CB415A40149B1621CB415A40149B139919401498139B03431A9803400B43D318159AD3181593199B0622D3411A00199B0B21CB415A40199B1921CB415A401C
:405C40001899179B4B4019991940179B4B40D2181B9B0B331900BB4B8900CB58D2181B9B002B27D003ABD96A03AB5B6A1120C341180003AB5B6A1324E341584003AB5B6AF9
:405C80009B0A584003AB1B69C01803AB1B6B0724E3411C0003AB1B6B1225EB415C4003AB1B6BDB086340C318C91803ABD96203ABDB6A05E0009BD96A03ABD96203ABDB6ADA
:405CC000D318169AD31816931A9A169BD3181A93159B0222D3411A00159B0D21CB415A40159B1621CB415A40159B149919401598149B0343139803400B43D318169AD3184B
:405D000016931A9B0622D3411A001A9B0B21CB415A401A9B1921CB415A401999189B4B401A991940189B4B40D2181B9B0C331900844B8900CB58D2181B9B002B27D003AB76
:405D4000196B03AB9B6A1120C341180003AB9B6A1324E341584003AB9B6A9B0A584003AB5B69C01803AB5B6B0724E3411C0003AB5B6B1225EB415C4003AB5B6BDB08634073
:405D8000C318C91803AB196303AB1B6B05E0009B196B03AB196303AB1B6BD318179AD3181793139A179BD3181393169B0222D3411A00169B0D21CB415A40169B1621CB41CA
:405DC0005A40169B159919401698159B0343149803400B43D318179AD3181793139B0622D3411A00139B0B21CB415A40139B1921CB415A401A99199B4B4013991940199B82
:405E00004B40D2181B9B0D3319004E4B8900CB58D2181B9B002B27D003AB596B03ABDB6A1120C341180003ABDB6A1324E341584003ABDB6A9B0A584003AB9B69C01803ABD7
:405E40009B6B0724E3411C0003AB9B6B1225EB415C4003AB9B6BDB086340C318C91803AB596303AB5B6B05E0009B596B03AB596303AB5B6BD318189AD3181893149A189B74
:405E8000D3181493179B0222D3411A00179B0D21CB415A40179B1621CB415A40179B169919401798169B0343159803400B43D318189AD3181893149B0622D3411A00149BB2
:405EC0000B21CB415A40149B1921CB415A4013991A9B4B40149919401A9B4B40D2181B9B0E331900174B8900CB58D2181B9B002B2AD003AB996B03AB1B6B1120C34118000F
:405F000003AB1B6B1324E341584003AB1B6B9B0A584003ABDB69C01803ABDB6B0724E3411C0003ABDB6B1225EB415C4003ABDB6BDB086340C318C91803AB996303AB9B6B19
:405F400008E0C046E4AA0100009B996B03AB996303AB9B6BD318199AD3181993159A199BD3181593189B0222D3411A00189B0D21CB415A40189B1621CB415A40189B1799FD
:405F800019401898179B0343169803400B43D318199AD3181993159B0622D3411A00159B0B21CB415A40159B1921CB415A401499139B4B4015991940139B4B40D2181B9B8E
:405FC0000F3319004F4B8900CB58D2181B9B002B27D003ABD96B03AB5B6B1120C341180003AB5B6B1324E341584003AB5B6B9B0A584003AB1B6AC01803AB1B680724E341E8
:406000001C0003AB1B681225EB415C4003AB1B68DB086340C318C91803ABD96303ABDB6B05E0009BD96B03ABD96303ABDB6BD3181A9AD3181A93169A1A9BD3181693199B3D
:406040000222D3411A00199B0D21CB415A40199B1621CB415A40199B189919401998189B0343179803400B43D3181A9AD3181A931B9B10331B931B9B3F2B01D8FFF72AF91D
:40608000019B1A681A9BD218019B1A60019B0433019A04321168199A8A181A60019B0833019A08321168189A8A181A60019B0C33019A0C321168179A8A181A60019B103355
:4060C000019A10321168169A8A181A60019B1433019A14321168159A8A181A60019B1833019A18321168149A8A181A60019B1C33019A1C321168139A8A181A60C0461DB07E
:4061000030BDC046E4AA010000B595B00190002313932BE0139B9B00019A2821D3185B181B781A06139B9B00013301992820CB181B181B781B04D218139B9B000233019917
:406140002820CB181B181B781B02D318139A92000332019928208A1812181278991803AB139A9200D150139B01331393139B0F2BD0D9019B03AA11001800FFF78BF8C046B1
:4061800015B000BD10B586B0039002910192039B5C6A1B6A1A003F231340059322E0059B5A1C0592029A511C02911078039A2821D3185B18021C1A70039B5C6A1B6A01218F
:4061C00000225B185441039A13625462019B013B0193059B402B05D100230593039B1800FFF792FF019B002BD9D1C04606B010BD70B586B001900091019B5C6A1B6A5A0FA1
:40620000E1000A430592DB000493019B5C6A1B6A1A003F2313400393039B5A1C0392019A2821D3185B1880221A7013E0039B3F2213400393039B002B03D1019B1800FFF7A2
:4062400063FF039B5A1C0392019A2821D3185B1800221A70039B382BE8D10023029319E0039B5A1C0392059A150E00221600E8B2019A2821D3185B18021C1A70049B1B0ECB
:40628000059A120213430593049B1B020493029B01330293029B072BE2D9019B1800FFF733FF0023029329E0009B5A1C0092019A029989008A58120ED2B21A70009B5A1CDA
:4062C0000092019A029989008A58120CD2B21A70009B5A1C0092019A029989008A58120AD2B21A70009B5A1C0092019A029989008A58D2B21A70029B01330293029B072B4A
:40630000D2D9019B1800FEF791FFC04606B070BD00B583B001900091009A019B0021180001F09AFBC04603B000BDC046054B03221A60054B03221A60044B00221A60C04646
:406340007047C0463000304030003140000E3F4010B501F029FB03001B680C2B00D1FEE7FEE7C04600B583B00190019BDBB2180000F0C6FEFEE7C04600B585B00190104B2B
:406380001A68019BD3181A000E4BD21A80239B019A4209DC0A4B1B680393094B1A68019BD218074B1A6007E001F0FEFA03000C221A6001235B420393039B180005B000BDE5
:4063C0003C0D00203024002000B587B0224B0593224B0493204B059335E0049B1B680393049B5B680293049B9B680093002301930CE0039B1A68029B1A60029B043302938C
:40640000039B04330393019B04330193019A009B9A42EED1049BDB6800930023019308E0029B00221A60029B04330293019B04330193019A009B9A42F2D1049B103304934E
:40644000059B013B0593059B002BC6D101F0B2FAFBF70CFAFEE7C0460100000070B0010000B583B0144B144A126801218A431A60002301930FE0019B032B04D80F4B019ADB
:406480009200D35800E00E4B0E4A019989008B50019B01330193019B2F2BECD9F9F72AFE094B00221A60044B034A126801210A431A60C04603B000BD0000104000000000A4
:4064C0005163000000000020C000002010B5064B00221A70054B00221A70054B00221A7000F008F8C04610BD2B240020242400202A24002010B500F0C1FBC04610BDC046DC
:4065000030B595B005904E236B4400221A800EAA374B1000190014231A0001F094FA354B1B78002B04D1FFF7D1FF324B01221A70059B002B51D0304B059A1A604E236B44EA
:406540001B88002B1FD108AB0BAA5A6008AB0CAA1A6008AB00221A810CAB1B221A800CAB1B225A800CAB04221A710BAB08221A704E246C441E226A4408AB1100180002F0DC
:40658000EDFB030023804E236B441B88002B28D14E246C440EAA194D19491A4800230293002301930523009313002A0002F02CFB030023804E236B441B88002B11D1124B0F
:4065C00001221A704E246C44104B4622152118000FF01CF90300238003E04E236B4401221A804E236B441B88180015B030BDC046F0AB0100C012002014240020E80B0000D5
:40660000C80000200D690000202400200CAC010010B584B002006B4607331A706B4607331B78022B04D90E236B4401221A804DE0294B1B78042B44D1284B1B78DBB21A0025
:40664000042313403DD16B4607331B78002B0BD1234B3C221A82224B5B6820221A80204B5B6830225A8011E06B4607331B78012B0CD11B4B96221A82194B5B68C822D2002A
:406680001A80174B5B688022D2015A80154B6A46073212781A700E246C44114B18000CF0C5FC030023800E236B441B88002B0DD10A4B1B78DBB204221343DAB2074B1A70D1
:4066C00004E00E236B440422FF321A800E236B441B88180004B010BD202400202B240020900D00202A24002084B001900A006B4603331A7000230293029B002B20D0019B7F
:406700009A79029B1A700F236B4400221A7012E00F236B441B780133029AD3180F226A44127801998A5C1A700F236B441A780F236B4401321A700F236B441B78052BE7D989
:40674000C04604B07047C04682B00190019B1B789AB2019B01331B789BB21B029BB213439BB2180002B0704710B584B001900F236B4400221A70019B9B890B22934232D14A
:40678000019B181D019A0F246C44402300210FF055F8030023700F236B441B78002B1AD1019B5B681800FFF7CFFF03001A00022313409BB2002B07D00E4B1B680199822261
:4067C00052001000984706E00A4B1B6801990622FF3210009847084B1B78DBB201229343DAB2054B1A700F236B441B78180004B010BDC046142400202B24002010B584B013
:4068000001900F246C44019B1800FFF7ADFF03002370134B1B78DBB21A00012313401BD10F236B441B78002B12D002AB12229A70019B9A8902AB1A8002AB0F226A44127875
:40684000DA7002AA019B110018680DF059FD03E0019B18680DF0CCFDC04604B010BDC0462B24002082B00190C04602B07047C046034B00225A70024B00221A70C0467047B9
:406880002824002082B00190C04602B07047C046C046704784B001900E236B4400221A70019B9B79002B1CD10F236B4400221A7012E00F236B441B78019AD35C002B04D0A2
:4068C0000E236B4401221A700BE00F236B441A780F236B4401321A700F236B441B78052BE7D90E236B441B78180004B07047C04682B002006B4606331A80C04602B0704788
:4069000082B00190C04602B07047C04600B589B0020000916B4607331A70C94B1B78DBB201221343DAB2C64B1A706B4607331B78712B00D962E19A00C24BD3181B689F4625
:4069400004AB07221A7004AB00225A7004AB180004F01CF904AB07221A7004AB01225A7004AB180004F012F90023002B01D002F011F9B54B1B681800FFF78CFF031E11D04D
:40698000B14B1B68180002F011F9AF4B1B6800211800FFF7A9FEAC4B1B6801211800FFF7A3FE36E0A94B1B781A003F231A40A84B1B789901FC231B010B401A43A54B1B78AD
:4069C0001903F8235B020B401A43A34B1B785904FE231B040B4013430693069BDAB29F4B1A70069B1B0ADAB29C4B5A70069B1B0CDAB29A4B9A70994B180002F0D7F8974B7D
:406A000000211800FFF770FE944B01211800FFF76BFE00200CF09CF903AB3F221A7003AB00225A7003AB18000CF0B0F98C4B04221A70EAE0009B1800FFF724FFE5E0009B75
:406A40001A78884B1A70E0E0009B0593059B1B78002B00D0D4E0059B5B78002B0BD1824B0422DA80804B48229A807F4B7F4A1A60059B7D4A5A60724B1B78DBB20122934338
:406A8000DAB26F4B1A70BBE06D4B1B78DBB21A002023134000D0B5E0754B1B78102B02D1734B0522DA70734B1B78714A110018000CF07AFA03001A000A236B441A800A2389
:406AC0006B441B88002B06D06B4B1B680A226A441100362098475A4B1B78DBB201221343DAB2574B1A708DE0009B1800FFF708FF8BE0009B1800FFF703FF594B02221A706F
:406B000083E0574B04221A707FE0554B1B78022B00D179E04A4B1B78DBB21A000123134000D171E0464B1B78DBB21A00042313400BD04B4B03221A70414B1B78DBB2042218
:406B40009343DAB23E4B1A705EE03D4B1B78DBB21A00082313400BD0414B04221A70384B1B78DBB208229343DAB2354B1A704BE03B4B1B78032B47D1394B04221A7043E0F1
:406B8000009B1B881800FFF7B3FE3EE0394A009B1000190002231A0000F055FF314B00221A70FFF775FE30E0FFF762FE2DE0009B5B88452B05D81E236B44009A52881A8023
:406BC00003E01E236B4446221A801E236B441988009B1A8800231204120C1B0C1B04134318000DF097FB10E0009B1800FFF706FE0BE0009B1800FFF735FE06E0C04604E024
:406C0000C04602E0C04600E0C0460D4B1B78DBB21A00112313400FD0094B1B78DBB201229343DAB2064B1A70134B1B686A4607321278009910009847C04609B000BDC04656
:406C40002B240020BCAD0100AC0D00207CF2FF0F7DF2FF0F7BF2FF0F78F2FF0FA40D00202024002024240020C4120020B00C0020C80E00202824002014240020C046704790
:406C800010B500F057F8C04610BDC04610B5064B054A1268802109060A431A6000F016F800F016F8C04610BD0000244010B5064B1B78002B04D1FFF7E3FF034B01221A70F2
:406CC000FFF7E4FFC04610BDCC120020C046704710B500F08FF8C04610BDC04682B000230193034B1B680193019B180002B070474003244082B0044B1B681F2213400193DA
:406D0000019B180002B070470803244082B00190C046064B1B681F221340082BF9D0044B019A1A60C04602B07047C04608022440400224401B4B1C4A1A601C4B00221A6064
:406D40001B4B1C4A1A601C4B1C4A1A601C4B07221A601C4B00221A601B4B01221A601B4B164A1A601A4B00221A601A4B04221A60194B00221A60194B00221A60184B0022AB
:406D80001A60184B00221A60174B00221A60174B00221A60154B1B689AB2154B1A80C0467047C046000024400F000002400024404800244001000A000003244007000080B4
:406DC000040324401003244044002440000224400402244050002440880E2440C80E2440480F2440080F2440C80F2440880F2440CE120020074B074A126807490A4090217D
:406E000009040A431A60054B054A12881A60C0467047C04600010240FFFF0FFF880F2440CE12002000B583B000230193FFF762FF031E03D0FFF752FF03000193074B1A6822
:406E4000D8239B00134005D000230193034BD82292001A60019B180003B000BDC00F244000B585B001900023039309E0019A039BD3181B781800FFF749FF039B0133039360
:406E8000019A039BD3181B78002BEFD1C04605B000BDC04610B584B0019003AC00F0EDF903002370019B022B00D8B3E0019B302B00D9AFE05D4B1B78DBB21A00019B9A4220
:406EC0000AD35B4A0F236B4412781A70594A0E236B4412781A703FE0574B1B78DBB21A00019B9A420AD3554A0F236B4412781A70534A0E236B4412781A702DE0514B1B78D3
:406F0000DBB21A00019B9A420AD34F4A0F236B4412781A704D4A0E236B4412781A701BE04B4B1B78DBB21A00019B9A420AD3494A0F236B4412781A70474A0E236B44127899
:406F40001A7009E0454A0F236B4412781A70444A0E236B4412781A70019BDA1E0B236B4440498A5C1A700B236B441B782F2B0DD9019B2A2B0AD93C4B19221A60052000F059
:406F800073F90D236B4419221A7007E0364B1B68DAB20D236B443F210A401A700B226A440D236B4412781B789A4208D22E4B019A033A2C498A5C1A60052000F055F9019B85
:406FC000274A9A180A236B4412781A70274B0A226A4412781A60264B0F226A4412781A60244B0E226A4412781A60052000F0B6F80B226A440D236B4412781B789A420CD92E
:40700000194B019A033A17498A5C1A60052000F02BF902E0002000F073F803AB1B78180000F02FF9C04604B010BDC04640F3FF0F41F3FF0F42F3FF0F43F3FF0F44F3FF0F71
:4070400045F3FF0F46F3FF0F47F3FF0F48F3FF0F49F3FF0F4AF3FF0F4BF3FF0F4CF3FF0F4DF3FF0F84AF01002CFF0B4028FF0B401CFF0B4020FF0B4000B585B001900023EC
:407080000393154B144A126801210A431A60134B134A1A60134B134A1268802109020A431A60019B002B12D0102303930CE0012000F054F800F018F8031E02D000230393D5
:4070C00005E0019B013B0193019B002BEFD1039B180005B000BDC04660F02E4078002E400220000010002E4082B0044B1B68012213400193019B180002B070470C002E40A1
:4071000082B002006B4607331A7001BEC04602B07047C04600B583B0019009E00C4B1B68180000F0A1F8019B0A4A944663440193019A80231B029A42F0D8074B1B68019A21
:407140005343180000F090F8C04603B000BDC046DC0E00200080FFFFD40E002000B583B002006B4606331A806B4606331B88044A12785343180000F077F8C04603B000BD8D
:40718000D80E00200E4B0E4A126801218A431A600B4B0B4A126802218A431A60094B094A126830218A4310210A431A60054B054A126807218A4301210A431A60C0467047BB
:4071C00000F02E4000FF2E400E4B0E4A126802218A431A600C4B0C4A126807218A4302210A431A60084B084A126830218A4320210A431A60034B034A126801210A431A60E6
:40720000C046704700F02E4000FF2E4010B5FFF7B9FF044B034A1268802109060A431A60C04610BD00F02E4000B585B001900C4B1B68012213400393019B002B02D0012B6F
